{
  "_format": "hh-sol-artifact-1",
  "contractName": "VoltProtocol",
  "sourceName": "contracts/VoltProtocol.sol",
  "abi": [
    {
      "inputs": [
        {
          "internalType": "address",
          "name": "_vusdcTokenAddress",
          "type": "address"
        }
      ],
      "stateMutability": "nonpayable",
      "type": "constructor"
    },
    {
      "inputs": [
        {
          "internalType": "address",
          "name": "owner",
          "type": "address"
        }
      ],
      "name": "OwnableInvalidOwner",
      "type": "error"
    },
    {
      "inputs": [
        {
          "internalType": "address",
          "name": "account",
          "type": "address"
        }
      ],
      "name": "OwnableUnauthorizedAccount",
      "type": "error"
    },
    {
      "inputs": [],
      "name": "ReentrancyGuardReentrantCall",
      "type": "error"
    },
    {
      "inputs": [
        {
          "internalType": "address",
          "name": "token",
          "type": "address"
        }
      ],
      "name": "SafeERC20FailedOperation",
      "type": "error"
    },
    {
      "anonymous": false,
      "inputs": [
        {
          "indexed": true,
          "internalType": "uint256",
          "name": "orderId",
          "type": "uint256"
        },
        {
          "indexed": true,
          "internalType": "address",
          "name": "seller",
          "type": "address"
        }
      ],
      "name": "OrderCancelled",
      "type": "event"
    },
    {
      "anonymous": false,
      "inputs": [
        {
          "indexed": true,
          "internalType": "uint256",
          "name": "orderId",
          "type": "uint256"
        },
        {
          "indexed": true,
          "internalType": "uint256",
          "name": "streamId",
          "type": "uint256"
        },
        {
          "indexed": true,
          "internalType": "address",
          "name": "seller",
          "type": "address"
        },
        {
          "indexed": false,
          "internalType": "uint256",
          "name": "price",
          "type": "uint256"
        },
        {
          "indexed": false,
          "internalType": "uint256",
          "name": "percentage",
          "type": "uint256"
        }
      ],
      "name": "OrderCreated",
      "type": "event"
    },
    {
      "anonymous": false,
      "inputs": [
        {
          "indexed": true,
          "internalType": "uint256",
          "name": "orderId",
          "type": "uint256"
        },
        {
          "indexed": true,
          "internalType": "uint256",
          "name": "streamId",
          "type": "uint256"
        },
        {
          "indexed": true,
          "internalType": "address",
          "name": "buyer",
          "type": "address"
        },
        {
          "indexed": false,
          "internalType": "address",
          "name": "seller",
          "type": "address"
        },
        {
          "indexed": false,
          "internalType": "uint256",
          "name": "price",
          "type": "uint256"
        }
      ],
      "name": "OrderFilled",
      "type": "event"
    },
    {
      "anonymous": false,
      "inputs": [
        {
          "indexed": true,
          "internalType": "address",
          "name": "previousOwner",
          "type": "address"
        },
        {
          "indexed": true,
          "internalType": "address",
          "name": "newOwner",
          "type": "address"
        }
      ],
      "name": "OwnershipTransferred",
      "type": "event"
    },
    {
      "anonymous": false,
      "inputs": [
        {
          "indexed": true,
          "internalType": "address",
          "name": "user",
          "type": "address"
        },
        {
          "indexed": true,
          "internalType": "uint256",
          "name": "streamId",
          "type": "uint256"
        },
        {
          "indexed": false,
          "internalType": "uint256",
          "name": "amount",
          "type": "uint256"
        },
        {
          "indexed": false,
          "internalType": "uint256",
          "name": "duration",
          "type": "uint256"
        }
      ],
      "name": "StreamCreated",
      "type": "event"
    },
    {
      "anonymous": false,
      "inputs": [
        {
          "indexed": true,
          "internalType": "address",
          "name": "user",
          "type": "address"
        },
        {
          "indexed": true,
          "internalType": "uint256",
          "name": "streamId",
          "type": "uint256"
        },
        {
          "indexed": false,
          "internalType": "uint256",
          "name": "amountSold",
          "type": "uint256"
        },
        {
          "indexed": false,
          "internalType": "uint256",
          "name": "cashReceived",
          "type": "uint256"
        }
      ],
      "name": "StreamSold",
      "type": "event"
    },
    {
      "anonymous": false,
      "inputs": [
        {
          "indexed": true,
          "internalType": "address",
          "name": "user",
          "type": "address"
        },
        {
          "indexed": true,
          "internalType": "uint256",
          "name": "streamId",
          "type": "uint256"
        },
        {
          "indexed": false,
          "internalType": "uint256",
          "name": "amount",
          "type": "uint256"
        }
      ],
      "name": "Withdraw",
      "type": "event"
    },
    {
      "inputs": [
        {
          "internalType": "uint256",
          "name": "",
          "type": "uint256"
        }
      ],
      "name": "activeOrderIds",
      "outputs": [
        {
          "internalType": "uint256",
          "name": "",
          "type": "uint256"
        }
      ],
      "stateMutability": "view",
      "type": "function"
    },
    {
      "inputs": [
        {
          "internalType": "uint256",
          "name": "orderId",
          "type": "uint256"
        }
      ],
      "name": "buyOrder",
      "outputs": [],
      "stateMutability": "nonpayable",
      "type": "function"
    },
    {
      "inputs": [
        {
          "internalType": "uint256",
          "name": "orderId",
          "type": "uint256"
        }
      ],
      "name": "cancelOrder",
      "outputs": [],
      "stateMutability": "nonpayable",
      "type": "function"
    },
    {
      "inputs": [
        {
          "internalType": "uint256",
          "name": "streamId",
          "type": "uint256"
        },
        {
          "internalType": "uint256",
          "name": "price",
          "type": "uint256"
        },
        {
          "internalType": "uint256",
          "name": "percentage",
          "type": "uint256"
        }
      ],
      "name": "createOrder",
      "outputs": [
        {
          "internalType": "uint256",
          "name": "",
          "type": "uint256"
        }
      ],
      "stateMutability": "nonpayable",
      "type": "function"
    },
    {
      "inputs": [
        {
          "internalType": "uint256",
          "name": "durationInSeconds",
          "type": "uint256"
        }
      ],
      "name": "createStream",
      "outputs": [
        {
          "internalType": "uint256",
          "name": "",
          "type": "uint256"
        }
      ],
      "stateMutability": "payable",
      "type": "function"
    },
    {
      "inputs": [
        {
          "internalType": "uint256",
          "name": "durationInSeconds",
          "type": "uint256"
        },
        {
          "internalType": "uint256",
          "name": "amount",
          "type": "uint256"
        }
      ],
      "name": "createStreamWithVUSDC",
      "outputs": [
        {
          "internalType": "uint256",
          "name": "",
          "type": "uint256"
        }
      ],
      "stateMutability": "nonpayable",
      "type": "function"
    },
    {
      "inputs": [],
      "name": "getActiveOrderCount",
      "outputs": [
        {
          "internalType": "uint256",
          "name": "",
          "type": "uint256"
        }
      ],
      "stateMutability": "view",
      "type": "function"
    },
    {
      "inputs": [],
      "name": "getAllOrders",
      "outputs": [
        {
          "components": [
            {
              "internalType": "uint256",
              "name": "orderId",
              "type": "uint256"
            },
            {
              "internalType": "uint256",
              "name": "streamId",
              "type": "uint256"
            },
            {
              "internalType": "address",
              "name": "seller",
              "type": "address"
            },
            {
              "internalType": "uint256",
              "name": "price",
              "type": "uint256"
            },
            {
              "internalType": "uint256",
              "name": "percentage",
              "type": "uint256"
            },
            {
              "internalType": "uint256",
              "name": "listedAt",
              "type": "uint256"
            },
            {
              "internalType": "bool",
              "name": "isActive",
              "type": "bool"
            }
          ],
          "internalType": "struct VoltProtocol.Order[]",
          "name": "",
          "type": "tuple[]"
        }
      ],
      "stateMutability": "view",
      "type": "function"
    },
    {
      "inputs": [
        {
          "internalType": "address",
          "name": "seller",
          "type": "address"
        }
      ],
      "name": "getUserOrders",
      "outputs": [
        {
          "components": [
            {
              "internalType": "uint256",
              "name": "orderId",
              "type": "uint256"
            },
            {
              "internalType": "uint256",
              "name": "streamId",
              "type": "uint256"
            },
            {
              "internalType": "address",
              "name": "seller",
              "type": "address"
            },
            {
              "internalType": "uint256",
              "name": "price",
              "type": "uint256"
            },
            {
              "internalType": "uint256",
              "name": "percentage",
              "type": "uint256"
            },
            {
              "internalType": "uint256",
              "name": "listedAt",
              "type": "uint256"
            },
            {
              "internalType": "bool",
              "name": "isActive",
              "type": "bool"
            }
          ],
          "internalType": "struct VoltProtocol.Order[]",
          "name": "",
          "type": "tuple[]"
        }
      ],
      "stateMutability": "view",
      "type": "function"
    },
    {
      "inputs": [
        {
          "internalType": "address",
          "name": "user",
          "type": "address"
        }
      ],
      "name": "getUserStreamCount",
      "outputs": [
        {
          "internalType": "uint256",
          "name": "",
          "type": "uint256"
        }
      ],
      "stateMutability": "view",
      "type": "function"
    },
    {
      "inputs": [
        {
          "internalType": "address",
          "name": "user",
          "type": "address"
        }
      ],
      "name": "getUserStreams",
      "outputs": [
        {
          "internalType": "uint256[]",
          "name": "",
          "type": "uint256[]"
        }
      ],
      "stateMutability": "view",
      "type": "function"
    },
    {
      "inputs": [],
      "name": "nextOrderId",
      "outputs": [
        {
          "internalType": "uint256",
          "name": "",
          "type": "uint256"
        }
      ],
      "stateMutability": "view",
      "type": "function"
    },
    {
      "inputs": [],
      "name": "nextStreamId",
      "outputs": [
        {
          "internalType": "uint256",
          "name": "",
          "type": "uint256"
        }
      ],
      "stateMutability": "view",
      "type": "function"
    },
    {
      "inputs": [
        {
          "internalType": "uint256",
          "name": "",
          "type": "uint256"
        }
      ],
      "name": "orders",
      "outputs": [
        {
          "internalType": "uint256",
          "name": "orderId",
          "type": "uint256"
        },
        {
          "internalType": "uint256",
          "name": "streamId",
          "type": "uint256"
        },
        {
          "internalType": "address",
          "name": "seller",
          "type": "address"
        },
        {
          "internalType": "uint256",
          "name": "price",
          "type": "uint256"
        },
        {
          "internalType": "uint256",
          "name": "percentage",
          "type": "uint256"
        },
        {
          "internalType": "uint256",
          "name": "listedAt",
          "type": "uint256"
        },
        {
          "internalType": "bool",
          "name": "isActive",
          "type": "bool"
        }
      ],
      "stateMutability": "view",
      "type": "function"
    },
    {
      "inputs": [],
      "name": "owner",
      "outputs": [
        {
          "internalType": "address",
          "name": "",
          "type": "address"
        }
      ],
      "stateMutability": "view",
      "type": "function"
    },
    {
      "inputs": [],
      "name": "renounceOwnership",
      "outputs": [],
      "stateMutability": "nonpayable",
      "type": "function"
    },
    {
      "inputs": [
        {
          "internalType": "uint256",
          "name": "streamId",
          "type": "uint256"
        },
        {
          "internalType": "uint256",
          "name": "amountToSell",
          "type": "uint256"
        }
      ],
      "name": "sellShare",
      "outputs": [],
      "stateMutability": "nonpayable",
      "type": "function"
    },
    {
      "inputs": [
        {
          "internalType": "address",
          "name": "_vusdcTokenAddress",
          "type": "address"
        }
      ],
      "name": "setVusdcTokenAddress",
      "outputs": [],
      "stateMutability": "nonpayable",
      "type": "function"
    },
    {
      "inputs": [
        {
          "internalType": "uint256",
          "name": "",
          "type": "uint256"
        }
      ],
      "name": "streams",
      "outputs": [
        {
          "internalType": "uint256",
          "name": "totalDeposit",
          "type": "uint256"
        },
        {
          "internalType": "uint256",
          "name": "startTime",
          "type": "uint256"
        },
        {
          "internalType": "uint256",
          "name": "duration",
          "type": "uint256"
        },
        {
          "internalType": "uint256",
          "name": "claimedAmount",
          "type": "uint256"
        },
        {
          "internalType": "uint256",
          "name": "soldAmount",
          "type": "uint256"
        },
        {
          "internalType": "bool",
          "name": "isActive",
          "type": "bool"
        },
        {
          "internalType": "address",
          "name": "owner",
          "type": "address"
        }
      ],
      "stateMutability": "view",
      "type": "function"
    },
    {
      "inputs": [
        {
          "internalType": "address",
          "name": "newOwner",
          "type": "address"
        }
      ],
      "name": "transferOwnership",
      "outputs": [],
      "stateMutability": "nonpayable",
      "type": "function"
    },
    {
      "inputs": [
        {
          "internalType": "address",
          "name": "",
          "type": "address"
        },
        {
          "internalType": "uint256",
          "name": "",
          "type": "uint256"
        }
      ],
      "name": "userStreams",
      "outputs": [
        {
          "internalType": "uint256",
          "name": "",
          "type": "uint256"
        }
      ],
      "stateMutability": "view",
      "type": "function"
    },
    {
      "inputs": [],
      "name": "vusdcToken",
      "outputs": [
        {
          "internalType": "contract IERC20",
          "name": "",
          "type": "address"
        }
      ],
      "stateMutability": "view",
      "type": "function"
    },
    {
      "inputs": [],
      "name": "vusdcTokenAddress",
      "outputs": [
        {
          "internalType": "address",
          "name": "",
          "type": "address"
        }
      ],
      "stateMutability": "view",
      "type": "function"
    },
    {
      "inputs": [
        {
          "internalType": "uint256",
          "name": "streamId",
          "type": "uint256"
        },
        {
          "internalType": "uint256",
          "name": "amount",
          "type": "uint256"
        }
      ],
      "name": "withdraw",
      "outputs": [],
      "stateMutability": "nonpayable",
      "type": "function"
    },
    {
      "stateMutability": "payable",
      "type": "receive"
    }
  ],
  "bytecode": "0x60806040523480156200001157600080fd5b50604051620021c9380380620021c9833981016040819052620000349162000144565b33806200005c57604051631e4fbdf760e01b8152600060048201526024015b60405180910390fd5b6200006781620000f4565b50600180556001600160a01b038116620000c45760405162461bcd60e51b815260206004820152601b60248201527f496e76616c696420765553444320746f6b656e20616464726573730000000000604482015260640162000053565b600680546001600160a01b039092166001600160a01b031992831681179091556005805490921617905562000176565b600080546001600160a01b038381166001600160a01b0319831681178455604051919092169283917f8be0079c531659141344cd1fd0a4f28419497f9722a3daafe3b4186f6b6457e09190a35050565b6000602082840312156200015757600080fd5b81516001600160a01b03811681146200016f57600080fd5b9392505050565b61204380620001866000396000f3fe60806040526004361061014f5760003560e01c806364d60d91116100b6578063a85c38ef1161006f578063a85c38ef14610429578063c46966ca146104d3578063dbf001eb146104f3578063dc5600b414610513578063eabc1bb714610540578063f2fde38b1461056057600080fd5b806364d60d91146102f2578063715018a6146103985780637bea0d1c146103ad578063815395fc146103c25780638da5cb5b146103d7578063a1ba444d1461040957600080fd5b80633c1c08db116101085780633c1c08db1461023257806341a1181814610252578063441a3e7014610272578063514fcac714610292578063551479dd146102b257806363c69f08146102c557600080fd5b8063020055f91461015b5780630519e9751461018e57806313f08abf146101b05780631e99d569146101e657806322f85eaa146101fc5780632a58b3301461021c57600080fd5b3661015657005b600080fd5b34801561016757600080fd5b5061017b610176366004611d7d565b610580565b6040519081526020015b60405180910390f35b34801561019a57600080fd5b506101ae6101a9366004611da7565b6105b1565b005b3480156101bc57600080fd5b5061017b6101cb366004611dc9565b6001600160a01b031660009081526004602052604090205490565b3480156101f257600080fd5b5061017b60025481565b34801561020857600080fd5b506101ae610217366004611de4565b6108ca565b34801561022857600080fd5b5061017b60075481565b34801561023e57600080fd5b5061017b61024d366004611da7565b610b27565b34801561025e57600080fd5b506101ae61026d366004611dc9565b610d6b565b34801561027e57600080fd5b506101ae61028d366004611da7565b610df5565b34801561029e57600080fd5b506101ae6102ad366004611de4565b61114d565b61017b6102c0366004611de4565b611244565b3480156102d157600080fd5b506102e56102e0366004611dc9565b6113fe565b6040516101859190611dfd565b3480156102fe57600080fd5b5061035861030d366004611de4565b600360208190526000918252604090912080546001820154600283015493830154600484015460059094015492949193919290919060ff81169061010090046001600160a01b031687565b6040805197885260208801969096529486019390935260608501919091526080840152151560a08301526001600160a01b031660c082015260e001610185565b3480156103a457600080fd5b506101ae611608565b3480156103b957600080fd5b506102e561161c565b3480156103ce57600080fd5b5060095461017b565b3480156103e357600080fd5b506000546001600160a01b03165b6040516001600160a01b039091168152602001610185565b34801561041557600080fd5b5061017b610424366004611e8a565b61174c565b34801561043557600080fd5b5061048e610444366004611de4565b6008602052600090815260409020805460018201546002830154600384015460048501546005860154600690960154949593946001600160a01b0390931693919290919060ff1687565b6040805197885260208801969096526001600160a01b03909416948601949094526060850191909152608084015260a0830191909152151560c082015260e001610185565b3480156104df57600080fd5b506006546103f1906001600160a01b031681565b3480156104ff57600080fd5b506005546103f1906001600160a01b031681565b34801561051f57600080fd5b5061053361052e366004611dc9565b6119d9565b6040516101859190611eb6565b34801561054c57600080fd5b5061017b61055b366004611de4565b611a45565b34801561056c57600080fd5b506101ae61057b366004611dc9565b611a66565b6004602052816000526040600020818154811061059c57600080fd5b90600052602060002001600091509150505481565b6105b9611aa1565b6000828152600360205260409020600581015460ff166106135760405162461bcd60e51b815260206004820152601060248201526f4e6f206163746976652073747265616d60801b60448201526064015b60405180910390fd5b600581015461010090046001600160a01b031633146106445760405162461bcd60e51b815260040161060a90611efa565b6004810154600382015482546000929161065d91611f3a565b6106679190611f3a565b9050808311156106b95760405162461bcd60e51b815260206004820181905260248201527f416d6f756e74206578636565647320617661696c61626c652062616c616e6365604482015260640161060a565b60006103e86106c9856019611f4d565b6106d39190611f64565b905060006106e18286611f3a565b9050848460040160008282546106f79190611f86565b90915550506005546040516370a0823160e01b81523060048201526000916001600160a01b0316906370a0823190602401602060405180830381865afa158015610745573d6000803e3d6000fd5b505050506040513d601f19601f820116820180604052508101906107699190611f99565b905081811015801561078557506006546001600160a01b031615155b156107a6576005546107a1906001600160a01b03163384611acb565b61087b565b814710156107ef5760405162461bcd60e51b815260206004820152601660248201527550726f746f636f6c206c6971756964697479206c6f7760501b604482015260640161060a565b604051600090339084908381818185875af1925050503d8060008114610831576040519150601f19603f3d011682016040523d82523d6000602084013e610836565b606091505b50509050806108795760405162461bcd60e51b815260206004820152600f60248201526e151c985b9cd9995c8819985a5b1959608a1b604482015260640161060a565b505b6040805187815260208101849052889133917f9190ab401acf473ba957f858453cd56b7b8ecf0ae19268f75535e99eccc972b6910160405180910390a350505050506108c660018055565b5050565b6108d2611aa1565b6000818152600860205260409020600681015460ff166109275760405162461bcd60e51b815260206004820152601060248201526f4f72646572206e6f742061637469766560801b604482015260640161060a565b6002810154336001600160a01b039091160361097c5760405162461bcd60e51b815260206004820152601460248201527321b0b73737ba10313abc9037bbb71037b93232b960611b604482015260640161060a565b60018101546000908152600360205260409020600581015460ff166109d75760405162461bcd60e51b815260206004820152601160248201527053747265616d206e6f742061637469766560781b604482015260640161060a565b6002820154600582015461010090046001600160a01b03908116911614610a405760405162461bcd60e51b815260206004820152601c60248201527f53656c6c6572206e6f206c6f6e676572206f776e732073747265616d00000000604482015260640161060a565b60028201546003830154600554610a68926001600160a01b0391821692339290911690611b2f565b600581018054610100600160a81b03191633610100810291909117909155600090815260046020908152604082206001858101548254918201835591845291909220015560068201805460ff19169055610ac183611b6e565b600182015460028301546003840154604080516001600160a01b039093168352602083019190915233929186917f98be059f4e4f128647e8816d449952f4ff4d1ede44a19b13f7cff8aa6215eef4910160405180910390a45050610b2460018055565b50565b6000610b31611aa1565b60008311610b815760405162461bcd60e51b815260206004820152601f60248201527f4475726174696f6e206d7573742062652067726561746572207468616e203000604482015260640161060a565b60008211610bd15760405162461bcd60e51b815260206004820152601d60248201527f416d6f756e74206d7573742062652067726561746572207468616e2030000000604482015260640161060a565b6006546001600160a01b0316610c1f5760405162461bcd60e51b81526020600482015260136024820152721d9554d110c81d1bdad95b881b9bdd081cd95d606a1b604482015260640161060a565b600554610c37906001600160a01b0316333085611b2f565b6002805460009182610c4883611fb2565b909155506040805160e08101825285815242602080830191825282840189815260006060850181815260808601828152600160a088018181523360c08a018181528c87526003808a528c88209b518c5599518b850155965160028b0155935197890197909755905160048089019190915595516005909701805494516001600160a01b031661010002610100600160a81b0319981515989098166001600160a81b031990951694909417969096179092558181529282528483208054948501815583529120909101839055905191925082917f10edb425006815eb12b3b8e94d6e4bd2145ba69e4b437c5bebaf66a5a1c2373090610d529087908990918252602082015260400190565b60405180910390a39050610d6560018055565b92915050565b610d73611c2b565b6001600160a01b038116610dc95760405162461bcd60e51b815260206004820152601b60248201527f496e76616c696420765553444320746f6b656e20616464726573730000000000604482015260640161060a565b600680546001600160a01b039092166001600160a01b0319928316811790915560058054909216179055565b610dfd611aa1565b6000828152600360205260409020600581015460ff16610e525760405162461bcd60e51b815260206004820152601060248201526f4e6f206163746976652073747265616d60801b604482015260640161060a565b600581015461010090046001600160a01b03163314610e835760405162461bcd60e51b815260040161060a90611efa565b6000816001015442610e959190611f3a565b90508160020154811115610eaa575060028101545b60008260020154828460000154610ec19190611f4d565b610ecb9190611f64565b9050600083600401548460000154610ee39190611f3a565b90506000846003015483610ef79190611f3a565b905081818660030154610f0a9190611f86565b1115610f22576003850154610f1f9083611f3a565b90505b60008611610f725760405162461bcd60e51b815260206004820152601d60248201527f416d6f756e74206d7573742062652067726561746572207468616e2030000000604482015260640161060a565b80861115610fb85760405162461bcd60e51b81526020600482015260136024820152724e6f7468696e6720746f20776974686472617760681b604482015260640161060a565b85856003016000828254610fcc9190611f86565b90915550506005546040516370a0823160e01b81523060048201526000916001600160a01b0316906370a0823190602401602060405180830381865afa15801561101a573d6000803e3d6000fd5b505050506040513d601f19601f8201168201806040525081019061103e9190611f99565b905086811015801561105a57506006546001600160a01b031615155b1561107b57600554611076906001600160a01b03163389611acb565b611107565b604051600090339089908381818185875af1925050503d80600081146110bd576040519150601f19603f3d011682016040523d82523d6000602084013e6110c2565b606091505b50509050806111055760405162461bcd60e51b815260206004820152600f60248201526e151c985b9cd9995c8819985a5b1959608a1b604482015260640161060a565b505b604051878152889033907ff279e6a1f5e320cca91135676d9cb6e44ca8a08c0b88342bcdb1144f6511b5689060200160405180910390a35050505050506108c660018055565b611155611aa1565b6000818152600860205260409020600681015460ff166111aa5760405162461bcd60e51b815260206004820152601060248201526f4f72646572206e6f742061637469766560801b604482015260640161060a565b60028101546001600160a01b031633146111f85760405162461bcd60e51b815260206004820152600f60248201526e2737ba1037b93232b91037bbb732b960891b604482015260640161060a565b60068101805460ff1916905561120d82611b6e565b604051339083907fc0362da6f2ff36b382b34aec0814f6b3cdf89f5ef282a1d1f114d0c0b036d59690600090a350610b2460018055565b600080341161128c5760405162461bcd60e51b815260206004820152601460248201527311195c1bdcda5d080f880c081c995c5d5a5c995960621b604482015260640161060a565b600082116112dc5760405162461bcd60e51b815260206004820152601f60248201527f4475726174696f6e206d7573742062652067726561746572207468616e203000604482015260640161060a565b60028054600091826112ed83611fb2565b909155506040805160e0810182523480825242602080840191825283850189815260006060860181815260808701828152600160a089018181523360c08b018181528d87526003808a528d88209c518d5599518c850155965160028c01559351978a019790975590516004808a019190915595516005909801805494516001600160a01b031661010002610100600160a81b0319991515999099166001600160a81b03199095169490941797909717909255818152928252858320805495860181558352918190209093018590558351918252918101879052929350839290917f10edb425006815eb12b3b8e94d6e4bd2145ba69e4b437c5bebaf66a5a1c23730910160405180910390a392915050565b60606000805b60095481101561147c57836001600160a01b0316600860006009848154811061142f5761142f611fcb565b600091825260208083209091015483528201929092526040019020600201546001600160a01b03160361146a578161146681611fb2565b9250505b8061147481611fb2565b915050611404565b5060008167ffffffffffffffff81111561149857611498611fe1565b6040519080825280602002602001820160405280156114d157816020015b6114be611d19565b8152602001906001900390816114b65790505b5090506000805b6009548110156115fe57856001600160a01b0316600860006009848154811061150357611503611fcb565b600091825260208083209091015483528201929092526040019020600201546001600160a01b0316036115ec57600860006009838154811061154757611547611fcb565b600091825260208083209091015483528281019390935260409182019020815160e0810183528154815260018201549381019390935260028101546001600160a01b0316918301919091526003810154606083015260048101546080830152600581015460a08301526006015460ff16151560c082015283518490849081106115d2576115d2611fcb565b602002602001018190525081806115e890611fb2565b9250505b806115f681611fb2565b9150506114d8565b5090949350505050565b611610611c2b565b61161a6000611c58565b565b60095460609060009067ffffffffffffffff81111561163d5761163d611fe1565b60405190808252806020026020018201604052801561167657816020015b611663611d19565b81526020019060019003908161165b5790505b50905060005b60095481101561174657600860006009838154811061169d5761169d611fcb565b600091825260208083209091015483528281019390935260409182019020815160e0810183528154815260018201549381019390935260028101546001600160a01b0316918301919091526003810154606083015260048101546080830152600581015460a08301526006015460ff16151560c0820152825183908390811061172857611728611fcb565b6020026020010181905250808061173e90611fb2565b91505061167c565b50919050565b6000611756611aa1565b6000848152600360205260409020600581015460ff166117ac5760405162461bcd60e51b815260206004820152601160248201527053747265616d206e6f742061637469766560781b604482015260640161060a565b600581015461010090046001600160a01b031633146117dd5760405162461bcd60e51b815260040161060a90611efa565b6000831180156117ee575060648311155b61182f5760405162461bcd60e51b8152602060048201526012602482015271496e76616c69642070657263656e7461676560701b604482015260640161060a565b6000841161187f5760405162461bcd60e51b815260206004820152601c60248201527f5072696365206d7573742062652067726561746572207468616e203000000000604482015260640161060a565b600780546000918261189083611fb2565b909155506040805160e08101825282815260208082018a815233838501908152606084018b8152608085018b81524260a08701908152600160c0880181815260008b815260089098529887209751885594518786015592516002870180546001600160a01b0319166001600160a01b039092169190911790559051600386015551600485015551600584015592516006909201805460ff191692151592909217909155600980548084018255918190527f6e1540171b6c0c960b71a7020d9f60077f6af931a8bbf590da0223dacf75c7af9091018390555491925061197491611f3a565b6000828152600a60209081526040918290209290925580518781529182018690523391889184917f136333a1c3b206d34cce3dda5c5f12f2a06f154d243f4c5406cbc2ebda94749c910160405180910390a49150506119d260018055565b9392505050565b6001600160a01b038116600090815260046020908152604091829020805483518184028101840190945280845260609392830182828015611a3957602002820191906000526020600020905b815481526020019060010190808311611a25575b50505050509050919050565b60098181548110611a5557600080fd5b600091825260209091200154905081565b611a6e611c2b565b6001600160a01b038116611a9857604051631e4fbdf760e01b81526000600482015260240161060a565b610b2481611c58565b600260015403611ac457604051633ee5aeb560e01b815260040160405180910390fd5b6002600155565b6040516001600160a01b03838116602483015260448201839052611b2a91859182169063a9059cbb906064015b604051602081830303815290604052915060e01b6020820180516001600160e01b038381831617835250505050611ca8565b505050565b6040516001600160a01b038481166024830152838116604483015260648201839052611b689186918216906323b872dd90608401611af8565b50505050565b6000818152600a6020526040812054600954909190611b8f90600190611f3a565b9050808214611bee57600060098281548110611bad57611bad611fcb565b906000526020600020015490508060098481548110611bce57611bce611fcb565b6000918252602080832090910192909255918252600a9052604090208290555b6009805480611bff57611bff611ff7565b600082815260208082208301600019908101839055909201909255938152600a90935250506040812055565b6000546001600160a01b0316331461161a5760405163118cdaa760e01b815233600482015260240161060a565b600080546001600160a01b038381166001600160a01b0319831681178455604051919092169283917f8be0079c531659141344cd1fd0a4f28419497f9722a3daafe3b4186f6b6457e09190a35050565b600080602060008451602086016000885af180611ccb576040513d6000823e3d81fd5b50506000513d91508115611ce3578060011415611cf0565b6001600160a01b0384163b155b15611b6857604051635274afe760e01b81526001600160a01b038516600482015260240161060a565b6040518060e00160405280600081526020016000815260200160006001600160a01b031681526020016000815260200160008152602001600081526020016000151581525090565b80356001600160a01b0381168114611d7857600080fd5b919050565b60008060408385031215611d9057600080fd5b611d9983611d61565b946020939093013593505050565b60008060408385031215611dba57600080fd5b50508035926020909101359150565b600060208284031215611ddb57600080fd5b6119d282611d61565b600060208284031215611df657600080fd5b5035919050565b602080825282518282018190526000919060409081850190868401855b82811015611e7d578151805185528681015187860152858101516001600160a01b031686860152606080820151908601526080808201519086015260a0808201519086015260c09081015115159085015260e09093019290850190600101611e1a565b5091979650505050505050565b600080600060608486031215611e9f57600080fd5b505081359360208301359350604090920135919050565b6020808252825182820181905260009190848201906040850190845b81811015611eee57835183529284019291840191600101611ed2565b50909695505050505050565b60208082526010908201526f2737ba1039ba3932b0b69037bbb732b960811b604082015260600190565b634e487b7160e01b600052601160045260246000fd5b81810381811115610d6557610d65611f24565b8082028115828204841417610d6557610d65611f24565b600082611f8157634e487b7160e01b600052601260045260246000fd5b500490565b80820180821115610d6557610d65611f24565b600060208284031215611fab57600080fd5b5051919050565b600060018201611fc457611fc4611f24565b5060010190565b634e487b7160e01b600052603260045260246000fd5b634e487b7160e01b600052604160045260246000fd5b634e487b7160e01b600052603160045260246000fdfea264697066735822122036ae1a475783e19473cabd079947f9eb41d891ecf42d5c0cf855f537253e40fa64736f6c63430008140033",
  "linkReferences": {},
  "deployedLinkReferences": {}
}